{
  "hash": "00000000d83c8106fc1c301aba4b87c49de7450b0f4c89cc7be4623386cb868a",
  "version": 1,
  "prevBlock": "0000000088cc6843783e9b06e69a5be8cc72f62aef7f43c0dd0be2ae4a924114",
  "merkleRoot": "15956e9ca1c075f27576ab78b802e033ad519ad42fb0494b5c423ff0747efe0f",
  "time": 1239406587,
  "bits": 486604799,
  "nonce": 1429389348,
  "txs": [
    {
      "hash": "15956e9ca1c075f27576ab78b802e033ad519ad42fb0494b5c423ff0747efe0f",
      "witnessHash": "15956e9ca1c075f27576ab78b802e033ad519ad42fb0494b5c423ff0747efe0f",
      "mtime": 1605688446,
      "index": 0,
      "version": 1,
      "inputs": [
        {
          "prevout": {
            "hash": "0000000000000000000000000000000000000000000000000000000000000000",
            "index": 4294967295
          },
          "script": "04ffff001d027c02",
          "witness": "00",
          "sequence": 4294967295,
          "address": null
        }
      ],
      "outputs": [
        {
          "value": 5000000000,
          "script": "4104581e15591ae11589b264141c0f342ca3824e6a5ec3310e85fad0acae2d2af281ec19a83649ff1c4bf58ad22eb071c03b2013ec0febdb233d60b7d0d7db580ac8ac",
          "address": "161YUc3TYdjiCC6ddNVRLQuU4NnWHwb8CD"
        }
      ],
      "locktime": 0,
      "hex": "01000000010000000000000000000000000000000000000000000000000000000000000000ffffffff0804ffff001d027c02ffffffff0100f2052a01000000434104581e15591ae11589b264141c0f342ca3824e6a5ec3310e85fad0acae2d2af281ec19a83649ff1c4bf58ad22eb071c03b2013ec0febdb233d60b7d0d7db580ac8ac00000000"
    }
  ]
}